:020000040800F2
:1000000038240020252E0008E1060008E306000839
:10001000E7060008EB060008EF06000800000000F5
:10002000000000000000000000000000F3060008CF
:10003000F506000800000000F7060008F9060008B1
:100040003F2E00083F2E00083F2E00083F2E0008DC
:100050003F2E00083F2E0008B92D00083F2E000853
:100060003F2E00083F2E00083F2E00083F2E0008BC
:100070003F2E00083F2E00083F2E00083F2E0008AC
:100080003F2E00083F2E00083F2E00083F2E00089C
:100090003F2E00083F2E00083F2E0008D72D0008F5
:1000A0003F2E00083F2E00083F2E00083F2E00087C
:1000B0003F2A000883290008C92A00083F2E0008AB
:1000C0003F2E00083F2E00083F2E00083F2E00085C
:1000D0003F2E000827280008B75F000849280008BD
:1000E000F32D00083F2E00083F2E00083F2E000889
:1000F0003F2E00083F2E00083F2E00083F2E00082C
:100100003F2E00083F2E00083F2E00083F2E00081B
:100110003F2E00083F2E00083F2E00083F2E00080B
:100120003F2E00083F2E00083F2E00083F2E0008FB
:10013000DFF80CD008F0BEF900480047A102000823
:10014000382400202DE9F0410025012701265DE03B
:10015000012F04D0022F1BD0032F50D125E0681CA3
:10016000C5B201F08CFB04468CB90025642002F076
:10017000B4F9012001F0AAFB044644B9FEA008F03E
:1001800089FA701CC6B2052E01DB0026022736E074
:1001900001F01BFC04461CB9FAA008F07BFA032707
:1001A0004FF47A7002F099F929E000BFF94800880D
:1001B000401CF849088008460088B0F5967FF5DABB
:1001C00008460188F4A008F065FAF2480188012089
:1001D00001F022FC04468CB9F2A008F05BFA012081
:1001E000F4490860642002F078F90020F249C1F86F
:1001F000A001F24801F077FFBDE8F08100BF00BF29
:10020000C82002F06AF9142D00DB00E0A0E700BF6F
:1002100000BFF1E71CB501A801F077FD044614BB4F
:10022000BDF80620BDF80410E5A008F033FA01205F
:10023000E949087041F288300022E84B0090012023
:1002400002F0E4F840F6B83002F047F941F28830A5
:100250000022E24B0090104602F0D8F840F6B83089
:1002600002F03BF908E0FF2C06D0DDA008F012FAFE
:100270004FF4FA7002F031F91CBD10B501F046FCE4
:1002800004462CB9D9A008F005FA0020C14908801D
:1002900040F2DC5002F021F9C84801F024FF10BD03
:1002A00088B000240025A04602F0DAF84FF4A060E0
:1002B00003F04EFB00F012FB00F014FC01F07EFF97
:1002C00000F068FD02F00EFD00F0E6FB00F044FDDA
:1002D00001F090FF4FF4165002F03AF94FF4E1307C
:1002E00002F089F94FF4614002F0D7F901F07EF98C
:1002F000002000F02AFE002000F035FE41F61F41EC
:1003000041F2873002F06DFB41F61F4140F6C31009
:1003100002F00AFB05F0C6FD03E04FF4FA7002F0AC
:10032000DCF805F08FF90028F7D100F071FE01210B
:10033000B14805F0F1F9A14801F0D5FEAF4801F050
:100340007DFCC4E1AE480078B8B1AD480178ADA0FD
:1003500008F0A0F9AA480078012805D1FFF7F2FEBD
:100360000020A749087008E0A5480078022804D1B9
:10037000FFF783FF0020A249087008F1010080B256
:100380008046052803DD4FF00008FFF743FF0120FA
:1003900002F0A3F8282094FBF0F100FB114088B98B
:1003A0009B4B9C4A9C499D4800F03FFB462000F037
:1003B00080FC18B900F0D9FC994908604FF47A70B4
:1003C00002F08BF89748007801281ED196480078F3
:1003D00028281ADB002093490870934908700120EF
:1003E00074490860642002F078F800207249C1F86E
:1003F000A00141F288300022784B0090104602F0B4
:1004000005F840F6B83002F068F8601C80B2044687
:10041000C82872DB0421854802F009FE844908706F
:100420004FF40051834802F002FE834908704FF4F4
:100430000071804802F0FBFD804908704FF4807124
:100440007C4802F0F4FD7E4908704FF480717D48CD
:1004500002F0EDFD7C4908707C48007870B97C485A
:10046000007858B96B480078172803DD01207249DD
:1004700008700AE000207049087006E04FF400514F
:100480006C4802F0D4FD6C4908706D480078012872
:1004900002D15148007810B168480078D8B9614855
:1004A0000078C0B901206849087064480078A8B98C
:1004B0005C48007890B901206649086041F28830B4
:1004C0000022464B0090012001F0A0FF40F6B8301A
:1004D00002F003F802E000205B4908705048006811
:1004E00007F031FE06460F46534800785649097812
:1004F0004F4A127812B9012201E01AE00022CDE938
:100500000267CDE904210690414800784149097805
:10051000CDE9001040480378404802784E494F48E2
:1005200008F0C8F84D494E4805F01EF9002405F0C2
:100530003DFC032005F095FC054615B1284605F065
:100540003EF948480078302814D0464800786128A1
:1005500005D10020444908603020424908704148D4
:100560000078622805D101203F49086030203D49CC
:1005700008707BE0A8E00000D6B8CEC6D5FDC8B7AD
:1005800000000000D0C2C4A3B0E5C9FAB3C9B3C922
:10059000B9A6000014000020494420697320256496
:1005A00000000000CCEDBCD3D6B8CEC6B3C9B9A606
:1005B00000000000A08121420080214212000020A2
:1005C00049443A25642020C6A5C5E4B5C3B7D63A48
:1005D00025640D0A00000000110000200080564034
:1005E000D1E9D6A4B4EDCEF30D0A0000C9BEB3FD27
:1005F000B3C9B9A6000000001C000020B4150020FB
:100600000E0000204B45595F4E554D3A25640000C1
:100610000400002003000020020000200100002050
:1006200008000020170000201800002000140140DE
:100630000C000020001001400D0000200F000020E1
:1006400010000020000C01400500002000000020E8
:1006500016000020B40122420CB60008B414002099
:10066000049D000806000020888122421848007876
:10067000632808D101201749086030201449087008
:1006800001201549087012480078642808D100201C
:100690001049086030200E49087001200E4908708A
:1006A0000B480078652805D101200C4908703020DE
:1006B0000749087006480078662805D100200749D8
:1006C00008703020024908700A2001F006FF39E660
:1006D00006000020B4012242160000200500002080
:1006E000704700BFFEE700BFFEE700BFFEE700BFA8
:1006F000FEE7704770477047704700000CB5002058
:10070000019000906C48006840F480306A490860AD
:1007100000BF6948006800F4003000900198401C58
:100720000190009818B90198B0F5A06FF1D1624816
:10073000006800F4003010B10120009001E00020BA
:1007400000900098012843D15C48006840F01000F8
:100750005A4908600846006820F00300086008460F
:10076000006840F002000860534840685249486001
:100770000846406848600846406840F48060486029
:100780000846406820F47C1048600846406840F401
:10079000E81048600846006840F08070086000BFBC
:1007A0004548006800F000700028F9D042484068D1
:1007B00020F00300404948600846406840F00200CD
:1007C000486000BF3C48406800F00C000828F9D1A0
:1007D0000CBD10B5FFF792FF10BD10B5364800688C
:1007E00040F0010034490860084640683449084038
:1007F0003149486008460068324908402E4908607F
:100800000846006820F4802008600846406820F40C
:10081000FE0048604FF41F008860FFF7DAFF4FF0DA
:1008200000602949086010BD10B500210020002299
:10083000214B5B6803F00C0121B1042906D0082983
:1008400028D107E0214B224C236027E01F4B204C8E
:10085000236023E0184B5B6803F47010164B5B6851
:1008600003F48032022303EB904022B9194B434337
:10087000174C23600DE0104B5B6803F4003323B189
:10088000144B4343124C236003E0104B4343104C82
:10089000236003E00D4B0E4C236000BF00BF064BEE
:1008A0005B68C3F303130C4CE15C094B1B68CB4042
:1008B000074C236010BD00000010024000200240E1
:1008C0000000FFF8FFFFF6FE08ED00E000127A00DE
:1008D0002000002000093D002400002008B501216F
:1008E000242002F0CDFD4FF48070ADF80000102000
:1008F0008DF8030003208DF802006946094802F0D4
:1009000003FB4FF48071074802F0ABFB0420ADF805
:1009100000006946044802F0F7FA0421024802F098
:10092000A0FB08BD000801400014014010B56A4852
:10093000006820F00F00684908600846006840F031
:1009400003000860002065490860142001F0C5FD1F
:1009500001206349C1F8A0011E2001F09AFD10BDDD
:1009600010B500245C48006820F00F005A49086068
:100970000846006840F00800086004E0601CC4B24B
:10098000012001F086FD55488038006808B1642CCC
:10099000F4DB642C01DB012010BD002404E0601CAA
:1009A000C4B2012001F075FD4C488038006808B9D8
:1009B000642CF4DB642C01DB0120EDE70020EBE785
:1009C00010B5002404E0601CC4B2012001F061FDF8
:1009D00042488038006808B1642CF4DB002404E04D
:1009E000601CC4B2012001F054FD3C48803800680E
:1009F00008B9642CF4DB282001F04BFD374880381F
:100A0000006808B1012010BD0020FCE770B500248B
:100A1000002506E06006040EFFF7D2FF0443681CC1
:100A2000C5B2082DF6DB204670BD2DE9FC41054618
:100A30000E4617469846FFF779FFFFF791FF30BB48
:100A4000002405E0FFF7E2FF0DF80400601CC4B2CB
:100A5000052CF7DB9DF800009DF8011008449DF877
:100A6000021008449DF8031008449DF804108842C1
:100A700010D19DF8000028709DF8010030709DF89D
:100A8000020038709DF8030088F8000002E00120A1
:100A9000BDE8FC810020FBE708B50121042002F03D
:100AA000EFFC4FF48070ADF8000010208DF80300CB
:100AB00003208DF8020069460748001F02F024FA5F
:100AC0004FF480710448001F02F0CBFAFFF72EFFAD
:100AD000FFF746FF08BD000004080140A0012142C5
:100AE0000000214208B50121082002F0C9FC4FF4A2
:100AF0008070ADF8000010208DF8030003208DF801
:100B000002006946044802F0FFF94FF48071024880
:100B100002F0A9FA08BD0000000C0140002001E02D
:100B2000411CC8B20A28FBDB704710B580209749EA
:100B3000086040200860FFF7F1FF80209349091DFD
:100B40000860FFF7EBFF40209049091D0860FFF7A0
:100B5000E5FF10BD10B580208C49091D08604020BC
:100B6000091F0860FFF7DAFF80208849086010BD80
:100B700070B50446002520E004F0800018B1802004
:100B80008249086003E080208049091D0860FFF762
:100B9000C5FF40207D490860FFF7C0FF40207B492A
:100BA000091D0860072D02D18020091F086060061A
:100BB000040EFFF7B3FF681CC5B2082DDCDB70BD67
:100BC00070B50024002516E06006040E40206F4931
:100BD0000860FFF7A3FF6D480838006800F0800048
:100BE00008B1601CC4B240206849091D0860FFF7C5
:100BF00095FF681CC5B2082DE6DB204670BD10B518
:100C0000802062490860FFF789FF40205F49086043
:100C1000FFF784FF5D480838006800F0800008B1E5
:100C2000012400E0002440205849091D0860FFF716
:100C300075FF204610BD10B580205449091D08607D
:100C4000FFF76CFF402051490860FFF767FF402025
:100C50004E49091D0860FFF761FF80204B4908607D
:100C600010BD10B5802049490860FFF757FF4020AC
:100C700046490860FFF752FF40204449091D0860BB
:100C8000FFF74CFF10BD08B50121082002F0F8FB6A
:100C9000C020ADF8000003208DF8020014208DF86C
:100CA000030069463948103802F02EF9FFF752FF69
:100CB00008BD70B50446FFF738FF2046FFF758FF20
:100CC000FFF79DFF0546FFF745FF284670BD10B5AD
:100CD0000446FFF72AFF4620FFF74AFFFFF78FFF82
:100CE000012800D110BD2046FFF742FFFFF787FF24
:100CF000012801D10220F5E7FFF72CFF0020F1E7E2
:100D000010B50024FFF711FF4720FFF731FFFFF771
:100D100076FF012801D1002010BDFFF751FF0446E6
:100D2000FFF789FFFFF74CFF00EB042084B2FFF7C9
:100D300098FFFFF70FFF2046EEE710B50120FFF701
:100D4000C6FF10BD10B50020FFF7C1FF10BD10B5E4
:100D50000720FFF7BCFF10BD10B5FFF794FFFFF7AA
:100D6000ECFF1020FFF7B3FF10BD70B5FFF7C8FF11
:100D7000064607F0B3F90546054906F0E9FF0446C3
:100D80004FF07E5106F0B2FF70BD0000100C014024
:100D9000CDCC8C3F08B50121142002F071FB01215C
:100DA0002F4802F082F94FF40040ADF800004820CF
:100DB0008DF8030069462B4802F0A6F82020ADF814
:100DC000000048208DF803006946274802F09CF88F
:100DD0000120ADF8000028208DF803006946214865
:100DE00002F092F808BD10B5044614B101201F4965
:100DF00008701E48007808B31D48006838B11D48C7
:100E0000006820B11B483C380068012816D10A2030
:100E100001F063FB0020154908701548006808B907
:100E2000012010BD1348006808B90220F9E71148F5
:100E30003C380068012810D10320F2E70C48006814
:100E400001280AD10B480068012806D109483C381E
:100E5000006810B90120054908700020E1E7000092
:100E60000002300000080140001001403400002062
:100E7000140122423C01214210B52021FB4802F01E
:100E8000F0F88021F94802F0EEF88021F74802F0EE
:100E9000E8F810BD10B52021F44802F0E2F8202156
:100EA000F24802F0E0F810BD70B5044600251BE0E2
:100EB0002021EE4802F0D7F804F0800020B1802114
:100EC000EA4802F0CEF803E08021E84802F0CBF8CF
:100ED0002021E64802F0C5F82021E44802F0C3F8DA
:100EE0006006040E681CC5B2082DE1DB70BD10B5AC
:100EF0008021DE4802F0B5F82021DC4802F0B1F88C
:100F00008021DA4802F0AFF82021D84802F0ABF88F
:100F100010BD70B505460C46FFF7E9FF7820FFF7D6
:100F2000C3FFFFF7B7FF1CB14020FFF7BDFF02E092
:100F30000020FFF7B9FFFFF7ADFF2846FFF7B4FF2A
:100F4000FFF7A8FFFFF798FF70BD10B504461CB966
:100F50000021A620FFF7DDFF012C03D10021A720EF
:100F6000FFF7D7FF10BD10B504463CB90021C820DB
:100F7000FFF7CFFF0021A120FFF7CBFF012C07D106
:100F80000021C020FFF7C5FF0021A020FFF7C1FF0F
:100F900010BD10B500218D20FFF7BBFF00211420EC
:100FA000FFF7B7FF0021AF20FFF7B3FF10BD10B56B
:100FB00000218D20FFF7ADFF00211020FFF7A9FFD2
:100FC0000021AF20FFF7A5FF10BD70B500241CE085
:100FD00004F1B001C8B20021FFF79BFF00210846D1
:100FE000FFF797FF00211020FFF793FF002508E08F
:100FF0009F4901EBC501085D0121FFF78AFF681CCD
:10100000C5B2802DF4DB601CC4B2082CE0DB70BDDF
:1010100070B500240CE0002506E00020944901EBA7
:10102000C5010855681CC5B2802DF6DB601CC4B232
:10103000082CF0DBFFF7C9FF70BD70B50A46CE176C
:1010400001EB5676C6F3C703CE1701EB5676F610C2
:10105000A1EBC606F4B20122A240D5B2844A02EB4B
:10106000C002D25C2A43824E06EBC006F25470BD29
:1010700070B50B46CE1701EB5676C6F3C702CE17F6
:1010800001EB5676F610A1EBC606F4B20123A3409D
:10109000DDB2774B03EBC0039B5CDB43744E06EB86
:1010A000C006B354724B03EBC0039B5C2B43704EE2
:1010B00006EBC006B3546E4B03EBC0039B5CDB43F3
:1010C0006B4E06EBC006B35470BD2DE9F84F0546D4
:1010D0000E4617469846002D0ADB802F08DC002EAE
:1010E00006DBB8F1400F03DCBD4201DC464501DD03
:1010F000BDE8F88FBD420DD1002406E03019C1B221
:101100002846FFF79AFF601CC4B2A8EB0600A04275
:10111000F4DC30E046450CD1002406E02919C8B2C1
:101120003146FFF78AFF601CC4B2781BA042F5DC91
:1011300021E0A8EB060000F0FF0A781B00F0FF0B8F
:101140000AEB8A00400090FBFBF000F0FF0900244E
:101150000EE004FB09F00A2190FBF1F03044C0B22C
:1011600029190090C8B20099FFF767FF601CC4B24C
:10117000781BA042EDDC00BFBAE72DE9F04306463C
:101180000F469046002544463BE03A1BD1B2721907
:10119000D0B2FFF752FF3A1BD1B2721BD0B2FFF7A9
:1011A0004CFF3A19D1B2721BD0B2FFF746FF3A1981
:1011B000D1B27219D0B2FFF740FF7A19D1B2321909
:1011C000D0B2FFF73AFF7A1BD1B23219D0B2FFF793
:1011D00034FF7A1BD1B2321BD0B2FFF72EFF7A193F
:1011E000D1B2321BD0B2FFF728FF6D1C05FB05F012
:1011F00004FB040008FB1809B9F1000F01DD641EAF
:101200006D1E6000604308FB08F18842BDDABDE84E
:10121000F0832DE9FF4F81B080460E461C460096B4
:101220002046E31704EB5373DB1021464FEAE47CBE
:1012300004EB5C7C4FEAEC0CA4EBCC0CBCF1000F93
:1012400002D04FF0010C01E04FF0000C6344224645
:1012500004EBD27C4FEA6C0C03FB0CF303F0FF0BA6
:1012600003982038C7B200254CE000000008014078
:10127000C01500200C2C07D107EB4700FE4901EBFD
:10128000800010F805A014E0102C05D1FB4800EBFD
:10129000071010F805A00CE0182C07D107EBC700C9
:1012A000F74901EB800010F805A002E005B0BDE8A9
:1012B000F08F4FF000091FE00AF0800020B13146A6
:1012C0004046FFF7BAFE03E031464046FFF7D0FE46
:1012D0004FEA4A604FEA106A701CC6B20098301A92
:1012E000A04205D1009E08F1010000F0FF0806E0D1
:1012F00009F1010000F0FF09B9F1080FDCDB00BFC4
:10130000681CC5B25D45B5DB00BFCFE7F0B506464A
:101310000F4614461D4613E022782B4639463046C8
:10132000FFF777FF284605EBD07106EB6101CEB2DF
:10133000C5F18000B04202DA0026B81CC7B2641CB6
:101340002078202802DB20787E28E5DDF0BDF0B58E
:1013500004460D4616461F463B46CAA2294620466D
:10136000FFF7D4FF3B46324629462046FFF7CEFF23
:10137000F0BD10B50246012000E050430B1EA1F164
:101380000104E1B2F9D110BD2DE9F04F06468A46BD
:1013900091461F46099C00252CE0781B401EC1B2D7
:1013A0000A20FFF7E6FFB9FBF0F00A21B0FBF1F2EB
:1013B00001FB1208B8F1000F0CD1A34604EBDB715E
:1013C000491001FB0561C8B2234630225146FFF7A0
:1013D00020FF0DE0A34604EBDB71491001FB056122
:1013E000C8B208F13001CAB223465146FFF711FFD7
:1013F000681CC5B2BD42D0DBBDE8F08F70B50546B4
:101400000024A548007804285CDAA3490878C117AD
:1014100000EB91718910A0EB810131B1012909D054
:1014200002290CD0032914D10EE029469B4806F06E
:1014300038FC0FE029469A4806F033FC0AE02946BA
:10144000984806F02EFC05E02946974806F029FC4E
:1014500000E000BF00BF90480678F01706EB9070E0
:101460008010A6EB80000007010E10232A46002002
:10147000FFF76DFFFFF7A9FD06F0A6FB642190FBC7
:10148000F1F201FB1204A0B201F027F882480678BD
:10149000F01706EB90708010A6EB80000007010E9D
:1014A000102382A25820FFF731FFFFF78EFD06F0D0
:1014B0008BFB642190FBF1F201FB1204A0B201F05E
:1014C0000CF845E07649754806F0EBFB1023734AAB
:1014D00000210846FFF71AFF7249714806F0E1FB48
:1014E00010236F4A19460020FFF710FF6E496D4820
:1014F00006F0D7FB10236B4A20210020FFF706FFE0
:101500002946694806F0CDFB10232A4630210020E9
:10151000FFF71DFFFFF759FD06F056FB642190FB16
:10152000F1F201FB1204A0B200F0D7FF10235FA27A
:1015300030215820FFF7EAFEFFF747FD06F044FB95
:10154000642190FBF1F201FB1204A0B200F0C5FF90
:1015500051480078401C5049087070BD70B5044671
:101560000D4605F1B001C8B20021FFF7D2FC1021F1
:1015700041EA14100021FFF7CCFC04F00F0141F008
:1015800001000021FFF7C5FC70BD2DE9F05F0546A5
:101590000E4617469846DDF828B04FF00009CA46B7
:1015A0000024E11704EB5171C910A4EBC10101B98A
:1015B00001E0601CC4B2344614E021462846FFF71F
:1015C000CDFFAA460AE01BF809000121FFF7A1FCA4
:1015D00009F101090AF1010000F0FF0ABA45F2DB46
:1015E000601CC4B24445E8DBBDE8F09F08B50121AA
:1015F000042001F045FFB020ADF8000010208DF868
:10160000030003208DF8020069462A4801F07CFCA3
:10161000B021284801F025FD0021AE20FFF779FC1C
:1016200000210846FFF775FC00211020FFF771FC30
:1016300000214020FFF76DFC00218120FFF769FCAD
:101640000021CF20FFF765FC0021A120FFF761FCFE
:101650000021C820FFF75DFC0021A620FFF759FC00
:101660000021A820FFF755FC00213F20FFF751FC87
:101670000021D32020E00000159D000889A100086A
:1016800079A70008202020202020202020202020B2
:1016900020202020000000006D140020401A0020AF
:1016A000501A0020601A0020701A00205B4F4B5D1A
:1016B0000000000000080140FFF72BFC0021084655
:1016C000FFF727FC0021D520FFF723FC0021802015
:1016D000FFF71FFC0021D920FFF71BFC0021F120A0
:1016E000FFF717FC0021DA20FFF713FC002112207E
:1016F000FFF70FFC0021DB20FFF70BFC002140204F
:10170000FFF707FC00212020FFF703FC0021022047
:10171000FFF7FFFB00218D20FFF7FBFB00211420CA
:10172000FFF7F7FB0021A420FFF7F3FB0021A62021
:10173000FFF7EFFB0021AF20FFF7EBFBFFF768FCA3
:1017400008BD0000FE48C06940F00400FC49C861C3
:10175000FC48006820F07060FA490860084600689C
:1017600040F000600860F7480C30006820F040004E
:10177000F4490C310860704700BFF349098801F053
:1017800040010029F9D0F049091D0880704710B5C3
:10179000EF20FFF7F1FF0120FFF7EEFF10BD10B5BE
:1017A000EA490968080EFFF7E7FFE8480068C0F358
:1017B0000740FFF7E1FFE5480088C0F30720FFF787
:1017C000DBFFE2490878FFF7D7FF10BD10B50446EC
:1017D0002046FFF7D1FF10BD10B50446C4F3072023
:1017E000FFF7CAFFE0B2FFF7C7FF10BD10B5044610
:1017F0002046FFF7C1FF10BD10B504462012FFF7C9
:10180000BBFFE0B2FFF7B8FF10BD7CB50546EF2087
:101810008DF8000001208DF80100CC480068000E12
:101820008DF80200C9480068000C8DF80300C74815
:101830000088000A8DF80400C44800788DF805007F
:1018400007208DF8060000208DF80700C0490880A9
:101850000FE0012000F041FEBD48008800F4004088
:1018600038B16946BB4806F0E5F904460CB120469C
:101870007CBD681E80B2051EEBD100BFF8E770B5D5
:10188000FFF785FFFFF78BFF0120FFF79FFF032086
:10189000FFF7A2FF0120FFF7A9FF05263046FFF75B
:1018A000ABFF4FF4FA70FFF7B0FF05460DB16C7A4D
:1018B00000E0FF24A6480088C0F30E01A54806F00A
:1018C000AEF90020A2490880204670BD2DE9F04104
:1018D0000546FFF75CFFFFF762FF0120FFF776FF89
:1018E0000420FFF779FF0220FFF780FF2846FFF76B
:1018F00043FFEF1D3846FFF77FFF4FF4FA70FFF705
:1019000084FF06460EB1747A00E0FF2490480088F8
:10191000C0F30E018F4806F082F900208C49088040
:101920002046BDE8F0812DE9F04781460D46164678
:101930001F46FFF72CFFFFF732FF0120FFF746FF9E
:101940000820FFF749FF0420FFF750FF4846FFF744
:1019500013FF2812FFF710FFE8B2FFF70DFF301258
:10196000FFF70AFFF0B2FFF707FF09F10D0000EBE8
:101970002520E9B2084400EB2620F1B200EB010A71
:101980005046FFF739FF4FF4FA70FFF73EFF044669
:1019900064B194F80980E07AA17A00EB01203880E4
:1019A000607B217B00EB0120788001E04FF0FF0895
:1019B00067480088C0F30E01664806F030F9002041
:1019C000634908804046BDE8F08770B5FFF7DFFE49
:1019D000FFF7E5FE0120FFF7F9FE0320FFF7FCFE0D
:1019E0000520FFF703FF09263046FFF705FF4FF4F8
:1019F000FA70FFF70AFF05460DB16C7A00E0FF248C
:101A000053480088C0F30E01524806F008F9002040
:101A10004F490880204670BD2DE9F04106460C462E
:101A2000FFF7B5FEFFF7BBFE0120FFF7CFFE062054
:101A3000FFF7D2FE0620FFF7D9FE3046FFF79CFEE7
:101A40002012FFF799FEE0B2FFF796FE06F10D00B7
:101A500000EB2420E1B200EB01084046FFF7CCFE8A
:101A60004FF4FA70FFF7D1FE07460FB17D7A00E020
:101A7000FF2537480088C0F30E01364806F0CFF83E
:101A80000020334908802846BDE8F0812DE9F04167
:101A900004460D46FFF77BFEFFF781FE0120FFF7AE
:101AA00095FE0720FFF798FE0C20FFF79FFE2012FF
:101AB000FFF762FEE0B2FFF75FFE2812FFF75CFE61
:101AC000E8B2FFF759FE142000EB2420E1B20844ED
:101AD00000EB2520E9B200EB01084046FFF78CFE41
:101AE0004FF4FA70FFF791FE07460FB17E7A00E0DF
:101AF000FF2617480088C0F30E01164806F08FF83D
:101B00000020134908803046BDE8F08170B5FFF72A
:101B10003EFEFFF744FE0120FFF758FE0320FFF7CB
:101B20005BFE0D20FFF762FE11263046FFF764FED4
:101B30004FF4FA70FFF769FE05466DB16C7A0CE060
:101B400000100240000801400048004070140020CE
:101B50007C140020801A0020FF2477480088C0F3FE
:101B60000E01764806F05BF8002073490880204695
:101B700070BD014628295DD2DFE801F01416181A5D
:101B80001C1E20222426282A2C2E30323436383AA5
:101B90003C3E40424446484A4C5C4E50525C5C5489
:101BA000565C585A66A047E066A045E069A043E04D
:101BB0006FA041E073A03FE07AA03DE081A03BE050
:101BC00087A039E094A037E096A035E09BA033E0F1
:101BD0009EA000BFA2A000BFA8A000BFABA000BFF6
:101BE000B0A000BFB3A027E0B6A025E0B9A023E0D5
:101BF000BDA021E0BFA01FE0C2A01DE0CAA01BE065
:101C0000CDA019E0D6A017E0D9A015E0DBA013E025
:101C1000DEA011E0E2A00FE0E6A00DE0E9A00BE0FD
:101C2000EBA009E0EDA007E0F0A005E0F7A003E0DD
:101C3000FAA001E0FEA000BF00BF70472DE9F0410F
:101C40000546FFF7A4FDFFF7AAFD0120FFF7BEFD43
:101C50000320FFF7C1FD0F20FFF7C8FD132738460B
:101C6000FFF7CAFD4FF4FA70FFF7CFFD044604B347
:101C7000667AA07BE17B00EB01202880207C617CE0
:101C800000EB0120A870A07C0006E17C00EB014085
:101C9000217D00EB0120617D08446860A07DE17D2D
:101CA00000EB01202872207E617E00EB012068722B
:101CB00000E0FF26A6B92988E2A006F0EBFCA9788F
:101CC000E6A006F0E7FCE9A0696806F0E3FC687AA4
:101CD0004FF4165200FB02F1E7A006F0DBFC07E030
:101CE0003046FFF746FF80464146E6A006F0D2FCAC
:101CF00011480088C0F30E01104805F090FF002045
:101D00000D4908803046BDE8F0812DE9F0410546D7
:101D1000FFF73DFDFFF743FD0120FFF757FD0820CA
:101D2000FFF75AFD3220FFF761FD0320FFF724FD86
:101D3000FF20FFF721FDA9E17C140020801A00207C
:101D40004F4B0000CAFDBEDDB0FCBDD3CAD5B4ED1B
:101D5000CEF300004E6F2066696E676572206F6E6D
:101D6000207468652073656E736F72210000000037
:101D7000C2BCC8EBD6B8CEC6CDBCCFF1CAA7B0DCCA
:101D800000000000D6B8CEC6CDBCCFF1CCABB8C9F0
:101D9000A1A2CCABB5ADB6F8C9FAB2BBB3C9CCD829
:101DA000D5F70000D6B8CEC6CDBCCFF1CCABCAAA11
:101DB000A1A2CCABBAFDB6F8C9FAB2BBB3C9CCD8B4
:101DC000D5F70000D6B8CEC6CDBCCFF1CCABC2D2D1
:101DD000B6F8C9FAB2BBB3C9CCD8D5F70000000039
:101DE000D6B8CEC6CDBCCFF1D5FDB3A3A3ACB5ABB1
:101DF000CCD8D5F7B5E3CCABC9D9A3A8BBF2C3E621
:101E0000BBFDCCABD0A1A3A9B6F8C9FAB2BBB3C98C
:101E1000CCD8D5F700000000D6B8CEC6B2BBC6A558
:101E2000C5E400004E6F2066696E67657270726966
:101E30006E7420666F756E6421000000CCD8D5F7F3
:101E4000BACFB2A2CAA7B0DC000000004944B3ACCC
:101E5000B3F6D6B8CEC6BFE2B7B6CEA70000000034
:101E6000B4D3D6B8CEC6BFE2B6C1C4A3B0E5B3F60C
:101E7000B4EDBBF2CEDED0A700000000C9CFB4ABFA
:101E8000CCD8D5F7CAA7B0DC00000000C4A3BFE9D6
:101E9000B2BBC4DCBDD3CADCBAF3D0F8CAFDBEDD28
:101EA000B0FC0000C9CFB4ABCDBCCFF1CAA7B0DC49
:101EB00000000000C9BEB3FDC4A3B0E5CAA7B0DCF2
:101EC00000000000C7E5BFD5D6B8CEC6BFE2CAA79E
:101ED000B0DC0000B2BBC4DCBDF8C8EBB5CDB9A620
:101EE000BAC4D7B4CCAC0000BFDAC1EEB2BBD5FDEA
:101EF000C8B70000CFB5CDB3B8B4CEBBCAA7B0DC6D
:101F000000000000BBBAB3E5C7F8C4DAC3BBD3D046
:101F1000D3D0D0A7D4ADCABCCDBCB6F8C9FAB2BB39
:101F2000B3C9CDBCCFF10000D4DACFDFC9FDBCB658
:101F3000CAA7B0DC00000000B2D0C1F4D6B8CEC64B
:101F4000BBF2C1BDB4CEB2C9BCAFD6AEBCE4CAD63A
:101F5000D6B8C3BBD3D0D2C6B6AFB9FD000000001F
:101F6000B6C1D0B420464C41534820B3F6B4ED007E
:101F7000CEB4B6A8D2E5B4EDCEF30000CEDED0A745
:101F8000BCC4B4E6C6F7BAC500000000BCC4B4E6E1
:101F9000C6F7C9E8B6A8C4DAC8DDB4EDCEF30000D0
:101FA000BCC7CAC2B1BED2B3C2EBD6B8B6A8B4EDF4
:101FB000CEF30000D7D4B6AFD7A2B2E1CAA7B0DC47
:101FC00000000000D6B8CEC6BFE2C2FA0000000092
:101FD000B5D8D6B7B4EDCEF300000000D6B8CEC663
:101FE000C4A3B0E5CEAABFD50000000046696E6765
:101FF00065727072696E74206C69627261727920A8
:10200000697320656D70747900000000D7D4B6AF95
:10201000D7A2B2E1B3ACCAB100000000D7D4B6AFCA
:10202000D7A2B2E1D6B8CEC6D2D1B4E6D4DA000097
:10203000C4A3BFE9B7B5BBD8C8B7C8CFC2EBD3D02C
:10204000CEF300000D0AC4A3BFE9D7EEB4F3D6B8AF
:10205000CEC6C8DDC1BF3D25640000000D0AB6D460
:10206000B1C8B5C8BCB63D25640000000D0AB5D89E
:10207000D6B73D25780000000D0AB2A8CCD8C2CA58
:102080003D2564000D0A257300000000FF20FFF7C6
:1020900073FB0020FFF770FB0720FFF76DFB40F29A
:1020A00043273846FFF7A8FB2820FFF7AEFB04467E
:1020B0005CB1667A207BE17A00EB01202880A07B6E
:1020C000617B00EB0120688000E0FF263448008837
:1020D000C0F30E01334805F0A2FD0020304908800E
:1020E0003046BDE8F0812DE9F0410646FFF74FFB91
:1020F000FFF755FB0120FFF769FB0320FFF76CFB9F
:102100001D20FFF773FB21273846FFF775FB4FF4BF
:10211000FA70FFF77AFB044634B1657AE07AA17A67
:1021200000EB0120308000E0FF253DB9E07AA27A83
:1021300000EB02211CA006F0ADFA08E02846FFF7EC
:1021400018FD80464146AFF2C40006F0A3FA1448D9
:102150000088C0F30E01134805F061FD002010490E
:1021600008802846BDE8F08170B50446FFF70FFBF4
:10217000FFF715FB0120FFF729FB0520FFF72CFBDC
:102180000E20FFF733FB0420FFF7F6FA2046FFF797
:10219000F3FA04F118052846FFF72EFB002070BD66
:1021A0007C140020801A00200D0AD3D0D0A7D6B806
:1021B000CEC6B8F6CAFD3D256400000008B5012171
:1021C000102001F05DF94FF40050ADF80000102030
:1021D0008DF8030003208DF802006946044800F0E2
:1021E00093FE4FF40051024800F03DFF08BD00008F
:1021F0000010014008B50121102001F041F90F2025
:10220000ADF8000003208DF8020010208DF80300C7
:1022100069468F4800F078FE00220F218C4800F0BC
:1022200024FF08BD70B505460C46002D77D101206E
:102230008849086000208849C1F88401854908312F
:1022400008608549C1F88C01204600F022F9012080
:1022500080490860091D08600020091D08607E494A
:10226000C1F88C01204600F014F90020794908607B
:102270000120091D08600020091D08607649C1F889
:102280008C01204600F005F9002072490860012009
:10229000091D0860091D086000206F49C1F88C0104
:1022A000204600F0F6F800206A490860091D086021
:1022B0000120091D086000206749C1F88C012046F3
:1022C00000F0E7F8002063490860091D086001205C
:1022D000091D08606049C1F88C01204600F0D9F85A
:1022E00000205C490860091D0860091D0860012084
:1022F0005949C1F88C01204600F0CBF8012055491E
:1023000008600020091D0860091D0860012052496D
:10231000C1F88C01204600F0BCF876E0FFE7012010
:102320004C49086000204C49C1F8840149490831F2
:10233000086001204849C1F88C01204600F0A9F846
:10234000002044490860091D0860091D086001203B
:102350004149C1F88C01204600F09BF800203D491E
:102360000860091D08600120091D08603A49C1F88C
:102370008C01204600F08DF8002036490860091DC8
:1023800008600120091D086000203349C1F88C0154
:10239000204600F07EF800202E4908600120091D2B
:1023A0000860091D086000202B49C1F88C012046F7
:1023B00000F06FF80020274908600120091D08601F
:1023C0000020091D08602449C1F88C01204600F056
:1023D00060F801201F490860091D08600020091DE0
:1023E00008601D49C1F88C01204600F052F8012018
:1023F000184908600020091D0860091D0860164979
:10240000C1F88C01204600F044F870BD2DE9F05F62
:10241000834614461D464FF0000A05E058460A99C7
:10242000FFF700FF0AF1010A00220C4B2046294663
:1024300005F0E5FD06460F46504605F054FE804681
:1024400032463B4605F092FEE8D3BDE8F09F00001F
:102450000010014080012242000022420080E63F3D
:1024600010B56FF0040001F0C2FA2E4800682E4942
:10247000B0FBF1F02D4908700846007800EB4001F0
:10248000C1EBC0104FF6FF7101EAC0002849088077
:1024900010BD0146254A12784A434FF0E0235A61A5
:1024A00000229A611A46126942F001021A6100BFC5
:1024B0004FF0E022106900F001021AB100F48032FE
:1024C000002AF5D04FF0E022126922F001024FF00D
:1024D000E0231A6100229A6170470146144A12886B
:1024E0004A434FF0E0235A6100229A611A4612696A
:1024F00042F001021A6100BF4FF0E022106900F0C3
:1025000001021AB100F48032002AF5D04FF0E02227
:10251000126922F001024FF0E0231A6100229A6151
:10252000704700002000002000127A007414002080
:102530007614002000BF704700BFED4A128802F0F9
:102540004002002AF9D0C2B2E94B1B1D1A80704725
:1025500010B586B004460121042000F091FF01214E
:10256000880300F08DFF18208DF817004FF40070DD
:10257000ADF8140003208DF8160005A9DD4800F021
:10258000C3FC04208DF817000002ADF814000320EE
:102590008DF8160005A9D74800F0B6FC019400207C
:1025A000ADF810000C20ADF80E000020ADF80C00C6
:1025B000ADF80A00ADF8080001A9CD4801F007F810
:1025C0000121CB4801F08FF8012240F22551C84883
:1025D00001F095F825208DF8000001208DF803000A
:1025E00003208DF8010000208DF80200684601F0FC
:1025F000B4F906B010BD10B586B004460121042020
:1026000000F03EFF0121480400F047FF18208DF83C
:1026100017000420ADF8140003208DF8160005A95A
:10262000B44800F071FC04208DF817000820ADF8C4
:10263000140003208DF8160005A9AE4800F064FCD4
:1026400001940020ADF810000C20ADF80E00002021
:10265000ADF80C00ADF80A00ADF8080001A9A648D5
:1026600000F0B5FF0121A44801F03DF8012240F23D
:102670002551A14801F043F826208DF800000120E3
:102680008DF8030002208DF8010000208DF8020073
:10269000684601F062F906B010BD10B586B0044678
:1026A0000121082000F0ECFE0121880400F0F5FE75
:1026B000924800F049FF4FF48060ADF8100003200D
:1026C0008DF8120018208DF8130004A98C4800F032
:1026D0001BFC4FF40060ADF8100004208DF81300CF
:1026E00004A9874800F010FC00940020ADF8040015
:1026F000ADF80600ADF80800ADF80C000C20ADF800
:102700000A0069467D4800F062FF01217B4800F025
:10271000EAFF012240F22551784800F0F0FF27201F
:102720008DF8140002208DF8150001208DF8160098
:102730008DF8170005A801F010F941F61F4163203C
:1027400000F0D7F900206F49088000216E4801F0A1
:102750009DFD06B010BD2DE9F04107460C4615461B
:1027600000260DE014F8011B384601F029F800BFDF
:102770004021384601F092F80028F9D0701C86B24A
:10278000AE42EFDBBDE8F0810FB430B5CBB005460B
:1027900001AC50A800904FF4947101A8009B4F9A8F
:1027A00005F09CFF002000900BE014F8011B284668
:1027B00001F006F800BF4021284601F06FF800281C
:1027C000F9D020780028F0D14BB030BC5DF814FB74
:1027D0000FB410B5CCB002AC4FA801904FF4947177
:1027E00002A8019B4E9A05F079FF0020019047A1B5
:1027F0003F48FFF7C9FF0BE014F8011B3C4800F00D
:10280000DFFF00BF40213A4801F048F80028F9D026
:1028100020780028F0D140A13548FFF7B5FF4CB033
:1028200010BC5DF814FB10B540F22551304801F0A2
:102830004BF840B12E4800F0C7FF384908702021FE
:102840002B4801F038F810BD10B540F225512B4847
:1028500001F03AF8F8B1294800F0B6FFC4B22948AF
:10286000008800F40040B0B926480088B0F5C87F61
:1028700012DA0021244801F09DFF2248008818B98F
:102880000121214801F002FD1E490888411C1D4A12
:10289000118023490C5405E01A48008840F4004098
:1028A0001849088010BD0FB438B505A800901D4820
:1028B000009A049905F028FF00200090194805F0BF
:1028C000D5F985B200240DE000BF40210B4800F08F
:1028D000E5FF0028F9D01348015D084800F070FFBB
:1028E000601C84B2AC42EFDB38BC5DF814FB000026
:1028F000003801400008014000440040004800400A
:10290000000C01407C140020000800405B4C4F4745
:102910005D202F3E200000000D0A00000600002070
:10292000801A0020101C00207FB505460C460121AE
:10293000022000F0B2FDADF80850ADF804400020D0
:10294000ADF80A00ADF8060001A9804801F042F98F
:10295000012211467D4801F0B4FC1D208DF80000D5
:1029600000208DF8010003208DF8020001208DF871
:102970000300684600F0F1FF0121744801F086FC75
:102980007FBD10B50121714801F049FF40B301211D
:102990006E4801F055FF6E48007860B96D480078C8
:1029A00048B96D48007818B101206C49086002E010
:1029B00000206A4908606A48007810B1012069491E
:1029C00008606748007810B90020664908606648CA
:1029D0000078012804D165480078401C63490870DC
:1029E00010BD7FB505460C460121084600F055FD97
:1029F000ADF80850ADF804400020ADF80A00ADF87D
:102A0000060001A94FF0804001F0E4F801221146D0
:102A1000900701F056FC1C208DF8000000208DF876
:102A2000010003208DF8020001208DF803006846A4
:102A300000F093FF0121880701F028FC7FBD70B5ED
:102A40000121880701F0EBFE00283CD00121880716
:102A500001F0F6FE46A1484805F02CFE1023464A38
:102A600000212020FEF752FC4448037844480278B5
:102A700044A1414805F01EFE10233F4A194600209C
:102A8000FEF744FC434803784348027843A13A48A0
:102A900005F010FE1023384A20210020FEF736FCF6
:102AA0004248006805F04FFB044622460B4640A111
:102AB000314805F0FFFD10232F4A30210020FEF79A
:102AC00025FCFEF782FA70BD10B501213C4801F0EB
:102AD000A6FE68B13B48008840F4004039490880B0
:102AE0000121374801F0ACFE0021354801F0CEFB52
:102AF00010BD7FB505460C460121042000F0CDFC39
:102B0000ADF80450ADF800400020ADF80600ADF877
:102B1000020069462A4801F05DF801221146284862
:102B200001F0CFFB0121264801F0B0FB1E208DF8FB
:102B30000C0000208DF80D0002208DF80E00012001
:102B40008DF80F0003A800F008FF7FBD00040040CF
:102B500000000020160000200D000020B4012242D9
:102B600005000020A081214217000020180000204D
:102B700057656C636F6D6500A01D0020020000208A
:102B80000100002048756D3A25642E256420252516
:102B900000000000040000200300002054656D7058
:102BA0003A25642E25642043000000000800002020
:102BB0004C696768743A252E3166204C5800000035
:102BC000000800407C140020002044490860091DD2
:102BD0000860091D0860091D086041483F4914311B
:102BE0000860704700213D498279002A3AD00A46A0
:102BF000126803689A430B461A600A1D126803683C
:102C00009A430B1D1A60027911440A6803681A433B
:102C10000A60324A0832126803689A432F4B08331D
:102C20001A601A1D126803689A432C4B0C331A6001
:102C30004279102A0ED11A1F126803681A43274BD3
:102C400008331A601A1D126803681A43234B0C33A9
:102C50001A600DE02149427911440A6803681A4359
:102C60000A6005E0027911440A6803689A430A6021
:102C700070470021016001710C21417100218171B7
:102C800070471649103109680143144A1032116027
:102C9000704701460020114A143212680A400AB1F6
:102CA000012000E0002070470C4914310860704793
:102CB000014600200022094B1B6803EA0102074B72
:102CC00014331B680B4013B10AB1012000E000204F
:102CD0007047024914310860704700000004014049
:102CE000FFFF0F000EB50121084600F0C9FBFEF7FB
:102CF00051F80521022000F01DFA2020019000204B
:102D00008DF808000C208DF8090001208DF80A00CC
:102D100001A8FFF767FF0F21002000F00BFA4FF426
:102D20000040019000208DF808000C208DF809006B
:102D300001208DF80A0001A8FFF754FF0021084682
:102D400000F0F8F90120019000208DF8080008201B
:102D50008DF8090001208DF80A0001A8FFF742FF55
:102D600006208DF8000002208DF801008DF8020089
:102D700001208DF80300684600F0EFFD17208DF864
:102D8000000002208DF8010001208DF802008DF86E
:102D90000300684600F0E1FD28208DF800000220C5
:102DA0008DF8010000208DF8020001208DF803004D
:102DB000684600F0D2FD0EBD10B50A20FFF78DFB6E
:102DC00014480068012802D102201349087001202C
:102DD000FFF77FFF10BD10B50A20FFF77EFB0F48FD
:102DE000006810B901200E4908702020FFF771FF1C
:102DF00010BD10B50A20FFF770FB06483C30006894
:102E000010B90120044908704FF40040FFF761FF3A
:102E100010BD0000000121420E00002014012242DA
:102E2000170000200648804706480047FEE7FEE7F7
:102E3000FEE7FEE7FEE7FEE7FEE7FEE7FEE7FEE76A
:102E4000DB0700083101000810B50446CC48844275
:102E500008D10121042000F02DFB0021042000F006
:102E600029FB46E0C748844208D10121082000F030
:102E700021FB0021082000F01DFB3AE0C2488442FB
:102E800008D10121102000F015FB0021102000F0D6
:102E900011FB2EE0BD48844208D10121202000F022
:102EA00009FB0021202000F005FB22E0B848844205
:102EB00008D10121402000F0FDFA0021402000F05F
:102EC000F9FA16E0B348844208D10121802000F0CD
:102ED000F1FA0021802000F0EDFA0AE0AE488442C9
:102EE00007D10121801500F0E5FA0021A01500F0BE
:102EF000E1FA10BD10B50121084600F0DBFA00210F
:102F0000012000F0D7FA10BD2DE9F041024600255E
:102F10000026002000230024002791F803C00CF0B5
:102F20000F0591F803C00CF0100CBCF1000F03D09A
:102F300091F802C04CEA050591F800C0BCF1000F01
:102F400031D0146800202BE04FF0010C0CFA00F394
:102F5000B1F800C00CEA03069E4220D183004FF076
:102F60000F0C0CFA03F7BC4305FA03FC4CEA04040B
:102F700091F803C0BCF1280F06D14FF0010C0CFAF8
:102F800000FCC2F814C00AE091F803C0BCF1480F7D
:102F900005D14FF0010C0CFA00FCC2F810C0401C27
:102FA0000828D1D31460B1F800C0BCF1FF0F34DDA4
:102FB000546800202EE000F1080C4FF0010808FAD8
:102FC0000CF3B1F800C00CEA03069E4221D1830045
:102FD0004FF00F0C0CFA03F7BC4305FA03FC4CEA64
:102FE000040491F803C0BCF1280F05D100F1080CCE
:102FF00008FA0CF8C2F8148091F803C0BCF1480F2D
:1030000007D100F1080C4FF0010808FA0CF8C2F8DB
:103010001080401C0828CED35460BDE8F0814FF6E4
:10302000FF710180022181700421C1707047024646
:10303000002093680B400BB1012000E00020704796
:103040000146886880B2704702460020D3680B4072
:103050000BB1012000E0002070470146C86880B233
:10306000704701617047416170470AB1016100E03A
:1030700041617047C16070474FF480320A438261FA
:103080008161826182698269704702460020434BF8
:1030900018684FF68073184040EA021008433F4B0F
:1030A000186070473E49C8617047F0B50A46002372
:1030B00000240021002500F00046B6F1004F02D1A7
:1030C000364EF16901E0354E7168C0F3034583B2B5
:1030D00000F44016B6F5401F08D121F070612F4E64
:1030E000766826F070662D4F7E6012E000F4801640
:1030F000B6F5801F06D1032606FA05F4A14341F078
:10310000706106E0460D360103FA06F6B14341F060
:10311000706122B1460D360103FA06F6314300F024
:103120000046B6F1004F02D11C4EF16101E01B4E8A
:103130007160F0BD30B500228B071C0F0F2303FA1E
:1031400004F2164B08338C1053F824309343134C7D
:1031500008348D1044F8253023468C1053F8243061
:103160008C07240F00FA04F423430C4C08348D1010
:1031700044F8253030BD0A49DC3108607047000052
:1031800000080140000C0140001001400014014003
:1031900000180140001C01400020014000000140D7
:1031A00000002042DF48006840F00100DD4908606F
:1031B00008464068DC490840DA494860084600682B
:1031C000DA490840D74908600846006820F48020A2
:1031D00008600846406820F4FE0048604FF41F0075
:1031E00088607047CF49096821F48031CD4A116069
:1031F0001146096821F480211160B0F5803F03D0A9
:10320000B0F5802F0ED106E0C649096841F480313F
:10321000C44A116007E0C349096841F4A021C14ACA
:10322000116000E000BF00BF704710B501460022EA
:10323000002300204A11012A02D1BA4C236806E07B
:10324000022A02D1B74C236A01E0B64C636A01F04E
:103250001F02012494401C400CB1012000E000201A
:1032600010BD38B5002000900024002500BF31209B
:10327000FFF7DBFF05460098401C00900098B0F572
:10328000A06F01D0002DF2D03120FFF7CEFF08B1A2
:10329000012400E00024204638BD01460020A14A58
:1032A000106820F0F80040EAC10010607047A049A3
:1032B00008607047024600209A4B586820F47C1042
:1032C00042EA01031843974B5860704798490866D3
:1032D000704701460020934A506820F003000843DD
:1032E000506070478F48406800F00C0070470146FE
:1032F00000208C4A506820F0F0000843506070476E
:1033000001460020874A506820F4E060084350607E
:10331000704701460020834A506820F4605040EA1C
:10332000C1005060704729B17E4A527A02437D4BFA
:103330005A7204E07B4A527A82437A4B5A7270473F
:103340007B49D8310860704701460020754A5068B3
:1033500020F440400843506070470021714A2032F9
:103360001170704A82F82010012802D004280AD176
:1033700004E001216B4A2032117005E00521694A01
:103380002032117000E000BF00BF7047694908603B
:1033900070476449096A0143624A1162704765498E
:1033A00044390860704730B5002100220024002312
:1033B0005C4D6D6805F00C0121B1042905D0082988
:1033C00023D105E05C4D056022E05B4D05601FE008
:1033D000544D6D6805F47012524D6D6805F48034DB
:1033E000022505EB92421CB9544D554305600BE094
:1033F0004C4D6D6805F400351DB1504D55430560C9
:1034000002E04D4D5543056002E04B4D056000BFA5
:1034100000BF444D6D6805F0F0010909484D6B5C33
:103420000568DD4045603F4D6D6805F4E061090ABF
:10343000434D6B5C4568DD4085603A4D6D6805F431
:103440006051C90A3E4D6B5C4568DD40C560354D35
:103450006D6805F44041890B3A4D6B5CC568B5FB5E
:10346000F3F5056130BD29B12E4A526902432D4B57
:103470005A6104E02B4A526982432A4B5A617047D1
:1034800029B1284A92690243264B9A6104E0254AF1
:1034900092698243234B9A61704729B1214AD269CC
:1034A0000243204BDA6104E01E4AD26982431D4B7D
:1034B000DA61704729B11B4AD2680243194BDA60BE
:1034C00004E0184AD2688243164BDA60704729B18B
:1034D000144A12690243134B1A6104E0114A12693B
:1034E0008243104B1A617047124940390860704797
:1034F0000F49C86470470B49C87170470948406A52
:1035000040F0807007494862704701460020054A34
:1035100092680A400AB1012000E00020704701498A
:1035200088727047001002400000FFF8FFFFF6FEAF
:10353000000042428004424200127A0000093D002D
:103540007E1400208E14002010B50446FB488442EF
:1035500009D101218803FFF7ADFF00214FF480401E
:10356000FFF7A8FF32E0F648844209D10121480460
:10357000FFF7ADFF00214FF40030FFF7A8FF25E073
:10358000F048844209D101218804FFF7A0FF0021FF
:103590004FF48020FFF79BFF18E0EB48844209D1ED
:1035A0000121C804FFF793FF00214FF40020FFF72B
:1035B0008EFF0BE0E548844208D101210805FFF7A2
:1035C00086FF00214FF48010FFF781FF10BD2DE929
:1035D000F04786B005460E460024A24600BFA1462D
:1035E0000027B08900B100BF2F462C8A4CF6FF702F
:1035F0000440F08804432C82AC894EF6F31004405A
:10360000B08831890843718908430443AC81AC8A8E
:103610004FF6FF400440B0890443AC8201A8FFF795
:10362000C2FEC648874202D1DDF810A001E0DDF8F5
:103630000CA0A88900F4004040B10AEBCA0000EBDE
:103640000A1031684900B0FBF1F807E00AEBCA0044
:1036500000EB0A1031688900B0FBF1F86420B8FB78
:10366000F0F004012009642101FB1089A88900F40D
:10367000004040B1322000EBC900B0FBF1F000F097
:103680000700044308E0322000EB09106421B0FB7E
:10369000F1F000F00F0004432C8106B0BDE8F08784
:1036A0004FF41651016000218180C18001810C21FD
:1036B000418100218181704710B502460020108AA7
:1036C0004FF2FF0318400B884C8823438C88234318
:1036D000CC8823431843108210BD00210180418013
:1036E0008180C180704721B1828942F40052828179
:1036F00004E082894DF6FF731A4082817047F0B56D
:103700000346002400260025002040F66A17B9422F
:1037100000D100BF1846C1F3421401F01F06012773
:1037200007FA06F5012C01D10C3004E0022C01D17E
:10373000103000E014301AB107682F43076002E030
:103740000768AF430760F0BD1AB1838A0B438382D9
:1037500002E0838A8B4383827047028A4FF6F073BC
:103760001A400282028A0A430282704782894FF21B
:10377000FF731A40828182890A438281704721B196
:10378000828942F00202828104E082894FF6FD7351
:103790001A4082817047028A4FF6DF731A40028214
:1037A000028A0A430282704721B1028A42F48042AF
:1037B000028204E0028A4BF6FF731A4002827047CD
:1037C000C1F308028280704701468888C0F3080070
:1037D0007047818941F0010181817047028BD2B22B
:1037E0000283028B42EA012202837047028B02F4B9
:1037F0007F420283028B0A430283704721B1828A8F
:1038000042F02002828204E0828A4FF6DF731A407F
:103810008282704721B1828A42F01002828204E0E3
:10382000828A4FF6EF731A408282704721B1828AF2
:1038300042F00802828204E0828A4FF6F7731A404F
:103840008282704721B1828942F40042828103E082
:103850008289C2F30E028281704721B1828A42F4CA
:103860000062828204E0828A4FF2FF731A408282F1
:103870007047828A4FF6FB731A408282828A0A431B
:103880008282704721B1828A42F00202828204E081
:10389000828A4FF6FD731A408282704702460020EA
:1038A000B1F5007F00D100BF13880B400BB10120A0
:1038B00000E00020704701F40072B2F5007F00D1F3
:1038C00000BFCA430280704770B50246002400233F
:1038D0000025002040F66A16B14200D100BFC1F3B6
:1038E000421501F01F03012606FA03F3012D02D150
:1038F0009689334006E0022D02D1168A334001E05A
:10390000968A33400C12012606FA04F416883440D5
:1039100013B10CB1012000E0002070BD10B50022F1
:10392000002340F66A14A14200D100BF0A1201240C
:103930009440A3B2DC43048010BD00000038014075
:103940000044004000480040004C0040005000404F
:1039500031490143314A1160704770B5002100239D
:103960000F22C47804B32D4C246804F4E064C4F539
:10397000E064210AC1F10403CA40447804FA03F167
:103980008478144021430901254C0678A155047818
:1039900004F01F050124AC4005786D11AD0005F160
:1039A000E025C5F8004109E0047804F01F05012472
:1039B000AC401C4D0678761145F8264070BD1A4A79
:1039C0000A400243154B1B1F1A60704739B1134A56
:1039D000121D12680243114B1B1D1A6006E00F4AAC
:1039E000121D126882430D4B1B1D1A60704704287C
:1039F00008D14FF0E021096941F004014FF0E022C5
:103A0000116107E04FF0E021096921F004014FF056
:103A1000E0221161704700000000FA050CED00E0A3
:103A200000E400E080E100E080FFFF1F10B50446E5
:103A3000FE48844208D10121C014FFF73BFD00215C
:103A4000E014FFF737FDC4E0B4F1804F08D1012145
:103A50000846FFF73CFD00210120FFF738FDB8E0E4
:103A6000F348844208D101210220FFF730FD0021F4
:103A70000220FFF72CFDACE0EE48844208D1012182
:103A80000420FFF724FD00210420FFF720FDA0E023
:103A9000E948844208D101210820FFF718FD0021E0
:103AA0000820FFF714FD94E0E448844208D1012186
:103AB0001020FFF70CFD00211020FFF708FD88E023
:103AC000DF48844208D101212020FFF700FD0021BA
:103AD0002020FFF7FCFC7CE0DA48844208D1012179
:103AE0004014FFF7E7FC00216014FFF7E3FC70E0EF
:103AF000D548844209D10121C804FFF7DBFC00212D
:103B00004FF40020FFF7D6FC63E0D048844209D18F
:103B100001210805FFF7CEFC00214FF48010FFF7CC
:103B2000C9FC56E0CA48844209D101214805FFF783
:103B3000C1FC00214FF40010FFF7BCFC49E0C54870
:103B4000844208D101214020FFF7C1FC0021402020
:103B5000FFF7BDFC3DE0C048844208D10121802030
:103B6000FFF7B5FC00218020FFF7B1FC31E0BB4836
:103B7000844208D101218015FFF7A9FC0021A0157E
:103B8000FFF7A5FC25E0B648844209D101210804CD
:103B9000FFF790FC00214FF48030FFF78BFC18E01A
:103BA000B048844209D101214804FFF783FC002179
:103BB0004FF40030FFF77EFC0BE0AB48844208D1A5
:103BC00001218804FFF776FC00214FF48020FFF7E5
:103BD00071FC10BD00220288944B98420ED0994B84
:103BE00098420BD0B0F1804F08D0914B984205D04D
:103BF000904B984202D0904B984204D14FF68F736D
:103C00001A404B881A438D4B984207D08C4B9842F0
:103C100004D04FF6FF431A40CB881A4302808B88AA
:103C200083850B880385814B98420BD0854B984246
:103C300008D08B4B984205D08A4B984202D08A4BD1
:103C4000984201D10B7A038601238382704770B5B5
:103C5000002400220023058C4FF6FE7635400584B3
:103C6000028C8388048B4FF68F752C40B51E2C4038
:103C70000D882C43751E2A400D892A434D882A43FE
:103C80006A4DA8420BD06F4DA84208D0744DA8428F
:103C900005D0744DA84202D0734DA84213D14FF6FF
:103CA000F7752A404D892A434FF6FB752A408D88C7
:103CB0002A434FF6FF652B404FF6FF552B408D8969
:103CC0002B43CD892B4383800483CD888586028452
:103CD00070BD70B5002400220023058C4FF6EF76EE
:103CE00035400584028C8388048B48F6FF752C4090
:103CF0004FF6FF452C400D884FF6FF7606EA052566
:103D00002C434FF6DF752A400D8906EA05152A4334
:103D10004D8806EA05152A43444DA84202D0494D74
:103D2000A8421DD14FF67F752A404D894FF6FF7688
:103D300006EA05152A434FF6BF752A408D8806EA24
:103D400005152A434FF6FF352B404FF2FF752B40E8
:103D50008D8906EA85052B43CD8906EA85052B4327
:103D600083800483CD880587028470BD70B50024EC
:103D700000220023058C4FF6FF6635400584028C37
:103D80008388848B4FF68F752C404FF6FC752C4042
:103D90000D882C434FF6FF552A400D894FF6FF76CC
:103DA00006EA05252A434D8806EA05252A431F4DC4
:103DB000A84202D0234DA8421DD14FF2FF752A40E0
:103DC0004D894FF6FF7606EA05252A434FF6FF3563
:103DD0002A408D8806EA05252A434EF6FF752B40BA
:103DE0004DF6FF752B408D8906EA05152B43CD89CD
:103DF00006EA05152B4383808483CD88858702845A
:103E000070BD70B5002200230024058C4EF6FF76AD
:103E100035400584038C8488828B48F6FF752A40E0
:103E20004FF6FF452A400D8820E00000002C01409D
:103E30000004004000080040000C0040001000405A
:103E40000014004000340140004C0140005001408B
:103E50000054014000180040001C004000200040B9
:103E60000040014000440140004801404FF6FF7609
:103E700006EA05252A434DF6FF752B400D8906EA13
:103E800005352B434D8806EA05352B43FA4DA842EC
:103E900002D0FA4DA84208D14BF6FF752C408D890F
:103EA0004FF6FF7606EA85152C4384808283CD8801
:103EB000A0F84050038470BD828B4FF2FF331A404C
:103EC0008283828B4FF6FF7303EA01231A438283B6
:103ED0007047F0B50C461546002200210026078CDD
:103EE0004EF6FF7C07EA0C070784828B018C4FF6A5
:103EF000FF7707EA043640F6FF473A404FF6FF7770
:103F000007EA05273A434FF6FF7707EA03373A43B4
:103F1000D94FB8420ED0D94FB8420BD0B0F1804F34
:103F200008D0D74FB84205D0D64FB84202D0D64FAE
:103F3000B84206D14DF6FF77394046F480573943F1
:103F400005E047F6FF57394044F4805739438283F0
:103F50000184F0BD828B4FF6F3731A408283828B0B
:103F60000A4382837047F0B50C46154600220021B3
:103F70000026078C4FF6FF6C07EA0C070784828B3C
:103F8000018C4FF6FF7707EA04264FF60C773A408C
:103F90004FF6FF7707EA03172F433A43B64FB8426D
:103FA0000ED0B64FB8420BD0B0F1804F08D0B44F0E
:103FB000B84205D0B34FB84202D0B34FB84206D191
:103FC0004FF6FF57394046F48077394305E04FF20A
:103FD000FF57394044F48077394382830184F0BD30
:103FE000028B4FF2FF331A400283028B4FF6FF73AE
:103FF00003EA01231A4302837047F0B50C461546C5
:10400000002200210026078C4FF6EF7C07EA0C0700
:104010000784028B018C4FF6FF7707EA041640F6FF
:10402000FF473A404FF6FF7707EA03373A434FF628
:10403000FF7707EA05273A438F4FB8420ED08F4FDC
:10404000B8420BD0B0F1804F08D08D4FB84205D0A8
:104050008C4FB84202D08C4FB84206D14FF6DF7772
:10406000394046F01007394305E04FF65F77394095
:1040700044F01007394302830184F0BD028B4FF6F0
:10408000F3731A400283028B0A4302837047F0B530
:104090000C46154600220021068C4FF6FE773E4066
:1040A0000684028B018C4FF60C7632407E1C06EAA9
:1040B00003162E433243704EB0420ED06F4EB042C4
:1040C0000BD0B0F1804F08D06D4EB04205D06D4E90
:1040D000B04202D06C4EB04206D14FF6FD76314070
:1040E00044F00106314305E04FF6F576314044F0E7
:1040F0000106314302830184F0BD70B505460C46CC
:104100005D4885420ED05D4885420BD0B5F1804FA9
:1041100008D05B48854205D05A48854202D05A48AB
:10412000854200D100E000BF208850B92389A288D1
:1041300061882846FFF7ABFFE1882846FFF79EFF1E
:1041400025E0208804280AD12389A288618828468E
:10415000FFF753FFE1882846FFF742FF17E020886A
:1041600008280AD12389A28861882846FFF7FBFE28
:10417000E1882846FFF7EEFE09E02389A2886188DE
:104180002846FFF7A6FEE1882846FFF795FE70BD9A
:104190002DE9F04105460C4600260127608808B944
:1041A000022600E00026A088012801D1022700E0B5
:1041B00001272088A0B92389A28861882846FFF7B3
:1041C00066FFE1882846FFF759FF23893A463146C2
:1041D0002846FFF712FFE1882846FFF701FF13E0AA
:1041E0002389A28861882846FFF707FFE1882846CF
:1041F000FFF7F6FE23893A4631462846FFF747FF88
:10420000E1882846FFF73AFFBDE8F0810A884B882D
:104210001A438B881A43CB881A430B891A434B895C
:104220001A438B891A43A0F8442070474FF6FF7158
:10423000818000210180C18041800172704700218E
:10424000018041808180C180018141818181C18162
:104250007047002101804180012181800021C180BF
:10426000018170470021018041808180C1800181EE
:104270004181818170470000002C014000340140E1
:104280000004004000080040000C004021B10288FA
:1042900042F00102028004E002884FF6FE731A40E9
:1042A0000280704731B1B0F8442042F40042A0F8D7
:1042B000442005E0B0F84420C2F30E02A0F84420E8
:1042C00070471AB183890B43838102E083898B4352
:1042D000838170478182704741EA0203A0F8483029
:1042E00070471AB183890B43838102E083898B4332
:1042F0008381704701894FF6F87211400181704740
:104300000A46002101894FF68F731940114301813C
:10431000704730B504460D4629462046FFF7F0FFAA
:10432000208940F00700208130BD2DE9F04104468E
:104330000D4616461F46602D06D13B4601223146EA
:104340002046FFF75AFE05E03B4601223146204653
:10435000FFF79DFE29462046FFF7D2FF208940F057
:1043600007002081BDE8F08130B50C4600210189AD
:10437000C9B24FF6FF7505EA0325154325432943C6
:10438000018130BD2DE9F04105460E46174698469D
:10439000002443463A4631462846FFF7E5FF2C897C
:1043A0004FF6F870044044F007044FF68F70044055
:1043B00044F070042C81BDE8F081F0B504460D4650
:1043C00016461F463B46324629462046FFF7CCFF9D
:1043D000208940F480402081F0BD018582827047B1
:1043E0000A46002101884FF68F731940114301805E
:1043F0007047F0B50C4615461E46002100220023EA
:104400000189028B038C4FF6F877394021434FF630
:10441000FC473A4040F201173A434FF6DD773B4004
:104420004FF6FF7707EA06172F433B4301810283CC
:104430000384F0BD0A460021018B4FF68F731940AB
:104440001143018370470A460021018B48F6FF7330
:1044500019404FF6FF7303EA0223194301837047A3
:104460000A460021818B4FF68F73194011438183D7
:1044700070470A460021818B48F6FF7319404FF6BA
:10448000FF7303EA022319438183704721B1028835
:1044900042F08002028004E002884FF67F731A40E7
:1044A0000280704721B1828842F00402828004E0D9
:1044B00082884FF6FB731A408280704721B1828850
:1044C00042F00802828004E082884FF6F7731A40B7
:1044D0008280704721B1828842F00102828004E02C
:1044E00082884FF6FE731A40828070470A46002188
:1044F000018B4FF6F77319401143018370470A4649
:104500000021018B4FF2FF7319404FF6FF7303EA4E
:1045100002231943018370470A460021818B4FF61D
:10452000F77319401143818370470A460021818B3C
:104530004FF2FF7319404FF6FF7303EA022319434A
:10454000818370470A460021018B4FF6FB731940A7
:104550001143018370470A460021018B4FF6FF3358
:1045600019404FF6FF7303EA022319430183704792
:104570000A460021818B4FF6FB731940114381835A
:1045800070470A460021818B4FF6FF3319404FF6E2
:10459000FF7303EA02231943818370470A4600210F
:1045A000018B4FF67F7319401143018370470A4610
:1045B0000021018BC1F30E014FF6FF7303EA0223C2
:1045C0001943018370470A460021818B4FF67F73A0
:1045D00019401143818370470A460021818BC1F342
:1045E0000E014FF6FF7303EA0223194381837047DC
:1045F0000A460021018C4FF6FD73194011430184D6
:1046000070470A460021018C4FF6F7731940114399
:10461000018470470A460021018C4FF6DF73194070
:104620004FF6FF7303EA02131943018470470A46E9
:104630000021018C4FF67F7319404FF6FF7303EA98
:1046400002131943018470470A460021018C4FF67A
:10465000FF5319404FF6FF7303EA02231943018405
:1046600070470A460021018C4FF2FF7319404FF644
:10467000FF7303EA02231943018470470A460021AD
:10468000018C4DF6FF7319404FF6FF7303EA0233B6
:1046900019430184704730B5002301248C40A3B234
:1046A000048C9C430484048C02FA01F5ADB22C43C3
:1046B000048430BD30B5002304248C40A3B2048CA4
:1046C0009C430484048C02FA01F5ADB22C430484AB
:1046D00030BD70B50346002000241846183001256F
:1046E0008D40ACB21D8CA5431D8409B1082909D1A8
:1046F00000EB6100056825F070050560056815434D
:1047000005600EE00D1FC5F34E052844056825F42D
:10471000E045056005684FF6FF7606EA0226354358
:10472000056070BD21B1028842F00202028004E0FF
:1047300002884FF6FD731A400280704721B102884B
:1047400042F00402028004E002884FF6FB731A4034
:104750000280704721B1828842F08002828004E0AA
:1047600082884FF67F731A408280704702884FF626
:10477000F7731A40028002880A43028070478288D9
:104780004FF68F731A40828082880A438280704776
:1047900002894FF6F8731A40028102890A430281A6
:1047A000704702894FF67F731A40028102890A43DB
:1047B0000281704781847047818570478186704788
:1047C0000187704781877047A0F8401070470288C2
:1047D0004FF6FF431A40028002880A430280704766
:1047E0000146888E70470146088F70470146888FC2
:1047F00070470146B1F8400070470146888C704709
:104800000146088D704702460020138A0B400BB109
:10481000012000E000207047CA430282704730B593
:104820000246002000230024158A05EA0103958929
:1048300005EA010413B10CB1012000E0002030BDF5
:10484000CA4302827047000070B504460E46002538
:10485000206898B901202073304604F00BFD2060D9
:104860002068E0B100206060A66003E000202168BD
:1048700048556D1CA068A842F8D810E002202073AB
:1048800003E00020216848556D1CA068A842F8D8B4
:1048900000206060A068B04201D20020206070BD9E
:1048A00010B50446207B012802D1206804F0BAFC30
:1048B000002020606060A060207310BD02460023CD
:1048C00001230DE002F07F000870D2092AB10878B8
:1048D00040F080000870491C01E0184670475B1CDE
:1048E000042BEFDD4FF0FF30F8E7F0B504460D463E
:1048F0002646012300201060002114E0775C07F0B9
:104900007F07106807FB03001060705C00F08000F8
:1049100008B9481CF0BDDB01B3F5001F02D36FF0EE
:104920000100F7E7491CA942E8DB4FF0FF30F1E74F
:10493000F8B50446FF2720780511012D01DB0E2D67
:1049400001DD3846F8BD032D24D1002000906A46D1
:104950000421601CFFF7C9FF2044461C0098022870
:1049600003D3207800F0010008B1FF20EAE7707857
:10497000317840EA0120801C0099884201D9FF204B
:10498000E0E7F8A1B01C03F055F908B10F2700E0EB
:10499000032700E02F463846D4E72DE9FF4F83B0C8
:1049A00082468B469146159C0025002002900F27D9
:1049B0000190484603F05AF90FFA80F8B9F1000F58
:1049C00003D1012007B0BDE8F08F08F102003844A0
:1049D00087B2109808B145F00205129878B145F0F9
:1049E0000405129803F042F9C0B20290139803F044
:1049F0003DF901460298001D0844384487B21198D9
:104A000020B1012804D0022808D104E000BF07E04B
:104A100045F00C0504E045F0140501E00220D1E763
:104A200000BF149808B145F02405BAF1000F02D078
:104A3000BBF1000F01D10320C4E745F0C00550468B
:104A400003F014F90646584603F010F93044001DEF
:104A5000384487B239462046FFF7F6FE206808B989
:104A60000420AFE73946206803F0D9F810216268C6
:104A7000501C606020688154D4E90023D118781F4D
:104A8000FFF71CFF00B201900198002804DA2046CD
:104A9000FFF706FF052095E761680198084460600C
:104AA00000216268501C60602068815404216268A3
:104AB000501C6060206881544D216268501C606009
:104AC0002068815451216268501C606020688154C4
:104AD00054216268501C6060206881546268501CD8
:104AE00060602068815404216268501C6060206806
:104AF00081546168481C6060206845540698010A2A
:104B00006268501C6060206881540698C1B2626877
:104B1000501C606020688154C8F307216268501CF3
:104B20006060206881546268501C6060206800F8F2
:104B30000280D4E9001288184246494603F09DF8E5
:104B400060684044606005F00400B8B30026139824
:104B500008B986A01390129803F088F886B2310A3B
:104B60006268501C6060206881546268501C6060FC
:104B700020688654D4E9001288183246129903F04E
:104B80007CF8606830446060139803F06FF886B278
:104B9000310A6268501C6060206881546268501C51
:104BA000606020688654D4E9001288183246139950
:104BB00003F063F860683044606000BF05F0800077
:104BC000C8B1504603F052F886B2310A6268501CF0
:104BD0006060206881546268501C60602068865460
:104BE000D4E9001288183246514603F046F860684E
:104BF0003044606000BF05F04000C8B1584603F083
:104C000035F886B2310A6268501C606020688154B1
:104C10006268501C606020688654D4E900128818CD
:104C20003246594603F029F860683044606000BF9E
:104C30000020C7E610B5044602212046FFF704FE17
:104C4000206808B9012010BDE0216268501C606036
:104C50002068815400216268501C60602068815483
:104C60000020F0E701464878022801D00120704773
:104C7000887810B18878012801D1C878F7E7FF203B
:104C8000F5E72DE9FF4F83B0834617469946139CFD
:104C9000002500260020029001908046BBF1000F05
:104CA00003D1012007B0BDE8F08F00260AE0049888
:104CB000805D232803D00498805D2B2801D1022039
:104CC000F0E7761C0498805D0028F0D148F03008A9
:104CD000119808B148F0010806EB0900851C1098EE
:104CE00020B1012804D002280AD105E000BF09E064
:104CF00048F00208AD1C05E048F00408AD1C01E0D6
:104D00000320CFE700BF67B33878022821D14FF0E6
:104D1000000A00BF50460AF1010A385C7D28F9D12B
:104D2000AAF1030A0AF1070002900298A9EB000A0F
:104D3000E81CA0EB0A012046FFF786FD206808B9B1
:104D40000420AFE7EA1CA2EB0A01206802F067FF2B
:104D50001FE0691D2046FFF777FD206840B9042059
:104D6000A0E70AE024637265710000000000000003
:104D7000691D206802F053FF0BE0691D2046FFF714
:104D800063FD206808B904208CE7691D206802F0E3
:104D900046FF6168481C6060206800F80180D4E923
:104DA000000281182846FFF789FD0190019800282C
:104DB00004DA2046FFF774FD052073E76168019867
:104DC00008446060C6F307216268501C6060206878
:104DD00081546268501C606020688654D4E90012D7
:104DE00088183246049902F048FF606830446060D9
:104DF000109860B14FEA1B216268501C6060206807
:104E000081546268501C6060206800F802B0C7B12D
:104E1000387802280BD1D4E9001288183946029A52
:104E200002F0E4FE616802980844606009E0D4E999
:104E3000001288184A46394602F0D8FE6068484495
:104E4000606000202EE72DE9FF4107460D469046A1
:104E50001E460A9C01200021CDE90001EB1C0A46F8
:104E6000FAA1CDE902040A20FFF70BFF88B96168B7
:104E7000481C606020684654C5F307216268501CD6
:104E80006060206881546268501C606020688554AE
:104E900003E0012004B0BDE8F0810020FAE72DE92D
:104EA000F04F85B080460D469146012004900027C2
:104EB000002600244FF0000A404602F0D7FE00F121
:104EC0000D0B584604F0D6F907461FB9049805B0F3
:104ED000BDE8F08F4246DEA1384603F0EBFB3846D2
:104EE00002F0C4FEC6B2F01D00EB050AAAEB0500F5
:104EF00004F0C0F9044624B9384604F093F9049844
:104F0000E5E70220207000206070A6703246394626
:104F1000E01C02F06BFE290EF01C2154C5F3074182
:104F2000301D2154C5F30721701D2154B01D255497
:104F300001200021CDE9000153462246C3A1CDE95D
:104F400002090A20FFF79DFE08B9002004903846A8
:104F500004F068F9204604F065F90498B7E72DE9F4
:104F6000F84380460C4615461E462F2108F10600E0
:104F700002F072FE07460020009017B90120BDE83C
:104F8000F8837F1C6A46042108F10100FFF7ADFC9D
:104F9000252004F06FF92060206808B90220EEE7B0
:104FA0002521206802F03BFE24223946206802F0C9
:104FB0001DFE243700982C3830803188481C04F0BE
:104FC00059F92860286820B9206804F02BF90320DB
:104FD000D5E73288511C286802F021FE3288394614
:104FE000286802F003FE0020C9E72DE9FF5F0746AD
:104FF0000D469046384602F039FE86B2284602F049
:1050000035FE1FFA80FA4FF00009F01D04F032F966
:1050100004461CB9012004B0BDE8F09FF11D2046F4
:1050200002F0FDFD8EA0016821608088A0803246DC
:105030003946204602F021FE284602F017FE83463C
:105040000120002100915B462A46CDE9020801912A
:1050500021460A20FFF715FE10B94FF0000901E0C4
:105060004FF00109204604F0DDF84846D3E72DE96A
:10507000FF5F8046174699460E9C0026B246B3460F
:105080000025B8F1000F03D1012004B0BDE8F09F66
:105090000BE057F8250008B90220F6E757F825007D
:1050A00002F0E4FD0644681CC5B24D45F1DB09EB96
:1050B0004900801C00EB060A0AF105012046FFF7B3
:1050C000C3FB206808B90320DFE782216268501C17
:1050D000606020688154D4E9000281185046FFF7CF
:1050E000EDFB0FFA80FBBBF1000F04DA2046FFF75F
:1050F000D7FB0420C9E76068584460604FEA182174
:105100006268501C6060206881546268501C606056
:10511000206800F80280002524E057F8250002F0FE
:10512000A5FD0646C6F307216268501C6060206832
:1051300081546268501C606020688654D4E9002362
:10514000D01857F82510324602F097FD60683044B9
:1051500060600198C1B26268501C60602068815430
:10516000681CC5B24D45D8DB00208EE70146FF2004
:105170008A78A2B9CA78142A11D10A7932B1012ADF
:1051800005D0022A04D0802A06D103E000BF00BF68
:10519000002003E0012001E0022000BF00BF7047B3
:1051A0002DE9F05F80460F4691461C460026B24628
:1051B000B3460025B8F1000F02D10120BDE8F09FF1
:1051C0000BE057F8250008B90220F7E757F825004B
:1051D00002F04CFD0644681CC5B24D45F1DB0220CF
:1051E00000EB490000EB060A0AF105012046FFF733
:1051F0002BFB206808B90320E0E7A2216268501C5D
:10520000606020688154D4E9000281185046FFF79D
:1052100055FB0FFA80FBBBF1000F04DA2046FFF7C5
:105220003FFB0420CAE76068584460604FEA1821D9
:105230006268501C6060206881546268501C606025
:10524000206800F8028000252CE000002464700033
:105250007B2264735F6964223A222573227D0000F9
:1052600024637273702F000057F8250002F0FEFCD3
:105270000646C6F307216268501C606020688154AE
:105280006268501C606020688654D4E90023D018FE
:1052900057F82510324602F0F0FC60683044606038
:1052A000681CC5B24D45DFDB002087E701460120C1
:1052B0008A781AB9CA781E2A00D1002070472DE9D1
:1052C000FC5F81460D4614461E46DDE90C8B99F8BD
:1052D000000000F00F0A002001900AF00800009082
:1052E000CAF341008BF8000001AA042109F1010072
:1052F000FFF7FBFA4844471C0198022802D30AF042
:10530000010010B1FF20BDE8FC9F7878397840EAB1
:10531000012020802088801C0199884201D9FF202B
:10532000F1E7AFF2C051B81C02F084FC08B10F20C5
:10533000E9E79BF8000020B101283DD0022877D191
:105340003BE0009808B1FF20DDE72188481C03F00E
:1053500091FF2860286808B9FF20D4E72288511CF3
:10536000286802F05CFC2288B91C286802F03EFC28
:105370000198801E2188401AA8F80000B8F8001093
:10538000481C03F077FF3060306820B9286803F0CC
:1053900049FFFF20B7E7B8F80020511C306802F041
:1053A0003EFCB8F80020B4F800C0BB1C0CEB0301B5
:1053B000306802F01BFC4FE000BF2088801C019980
:1053C000884201D9FF209EE72088C01C395C2088D4
:1053D000801C385C41EA00210E9801800E9808B9C3
:1053E000FF2090E72188481C03F044FF28602868CC
:1053F00008B9FF2087E72288511C286802F00FFCBB
:105400002288B91C286802F0F1FB0198001F21884E
:10541000401AA8F80000B8F80010481C03F02AFF52
:105420003060306828B9286803F0FCFEFF206AE786
:1054300010E0B8F80020511C306802F0F0FBB8F81A
:105440000020B4F800C03B1D0CEB0301306802F0F3
:10545000CDFB01E0FF2056E700BF2B21284602F0DC
:10546000FBFB20B92321284602F0F6FB08B1FF2000
:1054700049E7002047E770B505460C460421204661
:10548000FFF7E2F9206808B9012070BD4021626889
:10549000501C60602068815402216268501C60606A
:1054A0002068815429126268501C60602068815411
:1054B0006268501C6060206885540020E5E7014662
:1054C0004878022801D001207047887820B9C87830
:1054D0000A2801D10020F7E70120F5E770B505465D
:1054E0000C4604212046FFF7AFF9206808B90120D7
:1054F00070BD50216268501C606020688154022198
:105500006268501C60602068815429126268501CD7
:105510006060206881546268501C60602068855417
:105520000020E5E701464878022801D001207047B5
:10553000887820B9C8780A2801D10020F7E701202F
:10554000F5E770B505460C4604212046FFF77CF9C7
:10555000206808B9012070BD62216268501C60603B
:105560002068815402216268501C60602068815468
:1055700029126268501C6060206881546268501C67
:105580006060206885540020E5E7024650780228D4
:1055900001D0012070479078B0EB112F05D1D07861
:1055A000CBB2984201D10020F4E70120F2E770B5B8
:1055B00005460C4604212046FFF746F9206808B945
:1055C000012070BD70216268501C606020688154A9
:1055D00002216268501C6060206881542912626850
:1055E000501C6060206881546268501C60602068B4
:1055F00085540020E5E701464878022801D00120C3
:105600007047887820B9C8780A2801D10020F7E7C8
:105610000120F5E710B5044602212046FFF714F9F2
:10562000206808B9012010BDC0216268501C60606C
:105630002068815400216268501C60602068815499
:105640000020F0E730B58BB000200790089009905B
:105650000A900125DAA0DCA3DDA2DFA10090EA48D0
:10566000FDF792F807A8002102910391CDE90410FB
:1056700000912B02D2A20191D3A1D5A0FFF78DF901
:10568000002842D1089A91B2079800F0D3FBFA2083
:1056900000F0E7FB0446002C33D02046FFF748F922
:1056A00002282ED12046FFF7DDFA062823D2DFE8B4
:1056B00000F003090E13181DD4A1D348FDF764F8B8
:1056C00000251DE0D6A1D048FDF75EF818E0DBA16B
:1056D000CD48FDF759F813E0E1A1CB48FDF754F8A8
:1056E0000EE0E7A1C848FDF74FF809E0EDA1C64874
:1056F000FDF74AF804E0F6A1C348FDF745F800BFFE
:1057000000BF07A8FFF7CCF803E0F8A1BE48FDF7FB
:105710003BF828460BB030BD70B586B004460D4648
:1057200000260020029003900490059007E054F8B2
:105730002620F7A1B448FDF727F8701CC6B2AE4288
:10574000F5DB02A82B462246002100901420FFF72B
:105750008EFC38B9039A91B2029800F06BFB02A854
:10576000FFF79EF806B070BD70B588B005460C46D0
:105770000020049005900690079023462A46EAA14F
:10578000A148FDF701F8204602F070FA064604A889
:105790000121002200923346CDE9012103902246E7
:1057A00029460A20FFF76DFA38B9059A91B2049894
:1057B00000F040FB04A8FFF773F808B070BD2DE9B6
:1057C000F04F8FB0814600200B900C900D900E9002
:1057D0000A9009900890079000270690002600255F
:1057E00082464846FFF7A4F80746F81E0D287AD2ED
:1057F000DFE800F01C97A0BAD679DF79E4797979EF
:10580000070007AB0AAA09A94846FFF7A8FB064606
:105810005EB9BDF81C000090CBA17B48DDE90923EF
:10582000FCF7B2FF0BA8FFF73BF854E2CF4806A9FC
:1058300007AA0AABCDE90021029008AA09A94846A7
:10584000FFF73DFD0646002E6AD1BDF81C000A99FF
:10585000CDE90010BDF82030C5A16B48099AFCF7CE
:1058600093FF0A9801F0CEFA8046B8F1000F08D1F4
:1058700000F064FC83465A46CCA16348FCF784FFE1
:105880004BE0CFA1404601F0C3FE0446CEA15E48E6
:10589000226AFCF779FFCCA15B482269FCF774FF10
:1058A000CEA1206902F0C6F968B1CDA1404601F051
:1058B000AFFE0446606918B10020CB49086002E0E1
:1058C0000120C9490860C9A1206902F0B3F970B18B
:1058D000C3A1404601F09CFE0446606920B101204E
:1058E000C449087003E0F3E10020C2490870C2A176
:1058F000206902F09FF980B1B9A1404601F088FE0D
:1059000004460120BD490870606918B10120BC49F6
:10591000086002E00020BA490860404600F070FCD0
:10592000D9E14846FFF7CBFD18B9B6A13648FCF7D8
:105930002BFFD0E14846FFF7F5FDA0B9B9A13248E9
:10594000FCF722FF0BA90A20FFF7FBFD58B9BBA10A
:105950002D48FCF719FF0C9A91B20B9800F06AFAE7
:105960000BA8FEF79DFFB6E1804801884846FFF787
:105970000CFEA0B9B7A12448FCF706FF0BA90A202A
:10598000FFF715FE58B9B9A11F48FCF7FDFE0C9AA8
:1059900091B20B9800F04EFA0BA8FEF781FF9AE146
:1059A0004846FFF728FE18B9B7A11748FCF7ECFEE8
:1059B00091E14846FFF7DAFB08B971E17AE174E159
:1059C00035363136383339007465737400000000A1
:1059D00037373234370000004F6E654E65745F44D0
:1059E00065764C696E6B0D0A50524F49443A20253A
:1059F000732C09415549463A2025732C09444556D4
:105A000049443A25730D0A00003801405469707307
:105A10003A09C1ACBDD3B3C9B9A60D0A0000000054
:105A20005741524E3A09C1ACBDD3CAA7B0DCA3BAA4
:105A3000D0ADD2E9B4EDCEF30D0A00005741524E7D
:105A40003A09C1ACBDD3CAA7B0DCA3BAB7C7B7A8DF
:105A5000B5C4636C69656E7469640D0A000000006A
:105A60005741524E3A09C1ACBDD3CAA7B0DCA3BA64
:105A7000B7FECEF1C6F7CAA7B0DC0D0A00000000E1
:105A80005741524E3A09C1ACBDD3CAA7B0DCA3BA44
:105A9000D3C3BBA7C3FBBBF2C3DCC2EBB4EDCEF3F5
:105AA0000D0A00005741524E3A09C1ACBDD3CAA7F6
:105AB000B0DCA3BAB7C7B7A8C1B4BDD328B1C8C8B2
:105AC000E7746F6B656EB7C7B7A8290D0A000000B1
:105AD0004552523A09C1ACBDD3CAA7B0DCA3BACE75
